:020000041000EA
:1000000000B5324B212058609868022188439860DF
:10001000D860186158612E4B002199600421596104
:100020000121F02299502B49196001219960352056
:1000300000F044F80222904214D00621196600F024
:1000400034F8196E01211966002018661A6600F04E
:100050002CF8196E196E196E052000F02FF8012189
:100060000842F9D1002199601B49196000215960AB
:100070001A491B48016001219960EB211966A021F2
:10008000196600F012F800219960164914480160C1
:100090000121996001BC002800D000471248134993
:1000A000086003C880F30888084703B5996A0420EC
:1000B0000142FBD001200142F8D103BD02B5186610
:1000C0001866FFF7F2FF186E186E02BD00000240BE
:1000D000000000180000070000035F00212200005C
:1000E000F4000018222000A00001001008ED00E03C
:1000F000000000000000000000000000070B8FD58A
:1001000000200420F7010010CB010010CD010010E9
:10011000C9010010C9010010C9010010C901001077
:10012000C9010010C9010010C9010010CF01001061
:10013000C9010010C9010010D1010010D301001045
:10014000C1010010C1010010C1010010C101001067
:10015000C1010010C1010010C1010010C101001057
:10016000C1010010C1010010C1010010C101001047
:10017000C1010010C1010010C1010010C101001037
:10018000C1010010C1010010C1010010C101001027
:10019000C1010010C1010010C1010010C101001017
:1001A000C1010010C1010010C1010010C101001007
:1001B000C1010010C1010010C1010010C1010010F7
:1001C000EFF30580103800BE00BE00BE00BE00BECA
:1001D00000BE00BEF2EB88717852021098520210F5
:1001E0003802001090A31AE700201E49086006C8D4
:1001F00081F3088810471C480068002801D00020BF
:10020000F3E70DA40ECC002902D000F012F8F9E7B4
:100210001649174A002000E001C19142FCD115495E
:100220008847154988471549884700BEFDE701C939
:1002300001C29A42FBD3704798520210C0000020BE
:10024000C41700209C690210000004200000042054
:100250009C6902100010042000100420000000001F
:100260007047000008ED00E0000000D0C417002037
:1002700018460020196F001079030010D96E001085
:10028000F0B5C64600B5174886B007F003F8164B20
:1002900000259846154C164EA17863788C46217936
:1002A000308840394F1EB94103274942B943A768F6
:1002B00022780831059767790391029161464008D9
:1002C0000190009140462900049707F065F8AC239F
:1002D00001351B01E4180236032DDDD106B080BCC8
:1002E000B846F0BDF0E700101CE80010201B00200D
:1002F00068EE001010B5490706D5032805D0072879
:100300000ED00224092801D010BD002404F01EFAEA
:10031000AC2212016243034B9B1818615961F3E749
:100320000124F3E7201B002070B50400022816D832
:10033000AC20000160430D4B1D186A78002A0ED0D6
:10034000AA78002A0BD12030C01802F061FA0028E8
:1003500006D1012321000648AB7007F01DF870BDDF
:1003600002002100034807F017F8F8E7201B0020DF
:1003700050E8001064E80010F0B5DE464E464546F1
:100380005746E0B5AFB006F0EBFEC74804F0B8F84A
:10039000C64806F07FFFC649C64806F0FDFF812229
:1003A000C54C002192012000089405F073F9012248
:1003B000C24BBF49E254C24B0132C248E25409F079
:1003C0008FFA0321042003F0F5F80321052003F040
:1003D000F1F800220121042003F004F90022012198
:1003E000052003F0FFF8B84BD027994601230025DC
:1003F0009846B64E3F067459200003F09FF94346D5
:10040000A3407B62BB614B465C590435200003F07E
:1004100095F94346A340002201212000BB6203F06E
:10042000E1F80C2DE7D1AA4B01220421032003F0AF
:100430000FF901220421072003F0E6F8012204212C
:10044000092003F0E1F81E2004F05AF88122089CEC
:100450009201A3189B469F4B01270C939E4B099337
:100460009E4B0A932DAB99469D4B0D939D4B0E933E
:10047000D0231B06984600239A46250020352800E5
:1004800000F0CAFD3A00E37814209B00F3589A402C
:1004900013004246536104F033F8514622AA283231
:1004A000117028002CA901F021FE282322AAD35C78
:1004B000E178002825D1002B23D0099B4900280092
:1004C000595A02F08BF9021E01D000F038FC4B465D
:1004D00049461870280001F009FE4B4602001B78BF
:1004E000E178002802D1834200D067E3012588002B
:1004F00030588540D020000685610D9806F04CFFED
:100500000AE03D008A00B25895402A004546AA619B
:1005100002000C9806F040FFAC231B01E4185C4578
:10052000ABD1089B1B78002B00D099E36E4B6F4E2C
:100530009A466F4B6F4F259300256F4B0993AC2361
:10054000089A1B01D35C002B00D050E3AC23089A1F
:100550005B01D35C002B00D0BAE32900674806F0AA
:100560001BFFFFF78DFE664B1800199306F092FEF5
:10057000089A5378002B01D000F0F8FB614BD35C54
:10058000002B01D000F093FC5F4BD35C002B01D01B
:1005900000F084FC5D4B0D935D4B9B465D4B0E93D1
:1005A0005D4B10935D4B13935D4B18935D4B149310
:1005B0005D4B17935D4B22935D4B23935D4B1693DD
:1005C0005D4B24935D4B20935D4B28935D4B2993AA
:1005D0005D4B27935D4B1A935D4B15935D4B5E4CC2
:1005E00026935E4B21935E4B0F93002006F0BCFDDB
:1005F000831C0FD00D28F8D023680A2848D05A1C35
:100600005F2AF2D822605A46D054002006F0ACFD92
:10061000831CEFD1002300269A46524F089DAB78E9
:10062000002B2BD04B4652461A7020239846A844E4
:100630004946404602F064FB00281FD14B461B7818
:10064000002B1BD03900404602F092FB002800D05E
:100650008FE1AB6828690133AB60030069690B4324
:1006600000D176E1A861E96104F070F80D9B0A9071
:100670000B911B68E978994200D1E4E0AC231B019F
:10068000ED18F618FF1881239B019E42C7D1ACE7F5
:10069000002259465D46CA542B78202B01D0092BE5
:1006A00062D10135F8E7C046DC05000084E800109F
:1006B000801A0600A8E80010201B0020C30A0000D2
:1006C00083150000F010002070EE00107CEE00108A
:1006D000F5020010C8E8001068EE0010FCE80010F9
:1006E00024E900105CE9001090E90010E4E9001032
:1006F000401B002008EA0010BCE9001028EA0010A6
:1007000044EA0010C10A000081150000D84400200E
:1007100054440020D8EA0010E0EA0010E8EA001093
:10072000F0EA0010F4EA0010FCEA001064E800109F
:1007300050E8001000EB001008EB001020EB001058
:1007400030EB00103CEB001064EB00107CEB001071
:10075000181A002098EB0010D4440020E0EB0010A1
:10076000E8EB001058240020002B69D028000E99D7
:1007700009F032FF002800D101E12800109909F0AA
:100780002BFF002800D1FEE006222800139909F073
:10079000C5FE002800D1DFE006222800149909F0E8
:1007A000BDFE002800D1F1E005222800169909F0CD
:1007B000B5FE002800D036E105352800179909F06C
:1007C0000BFF002800D082E1089D6B78002B0DD034
:1007D000AB78002B0AD02800203002F003FA002367
:1007E000020000212498AB7006F0D6FDC84B089E8D
:1007F000F35C002B0FD0C74D735D002B0BD0AE23E5
:100800001B01F01802F0EEF90023020001212498E8
:10081000735506F0C1FDC04B089EF35C002B0FD052
:10082000BE4D735D002B0BD0AD235B01F01802F0C1
:10083000D9F90023020002212498735506F0ACFD7B
:1008400000232360D1E6159B0B9A5B68934200D985
:1008500014E705D1159B0A9A1B68934200D90DE74E
:100860002B79A868403B5A1E934103225B42934375
:10087000083309932A696B69069207930023FB5694
:1008800005936B790493099B03930293AA69EB691F
:10089000009201930200269806F07EFD099BA04A73
:1008A00098465B0011939F4B90199C46AC4463465D
:1008B00000220021804412935B461D9793464746D1
:1008C0001C96219E0C911B951E941F93099BFB1A4D
:1008D00098465B465D00129B4446ED1808E0092BE4
:1008E0000FD03000013406F057FD0235BC4213D062
:1008F0002378002BF5D04223FF33E35C5A1F012AF3
:10090000EDD80023E95E0029EBDD0F98013406F0F5
:1009100043FD0235BC42EBD10A2006F071FC0C9B72
:10092000119F099A01330C93474493449A42CDD1C5
:100930000A980B991F9B7C4A9B46002380185941BB
:100940000B00020015991B9D1C9E1D9F1E9C0CC137
:1009500094E603F0FBFE85E606352800189909F0B9
:100960003BFE002800D07DE001230D9A5B4213601E
:1009700066E70200E9781A9806F00EFD7EE61998FF
:1009800006F088FC5CE7FFF77BFC59E7063528009A
:10099000179909F021FE002872D1089A5378002B8C
:1009A0000FD09378002B0CD1259801F031FF021E57
:1009B00000D0FEE00123089A00212398937006F0EE
:1009C000EBFC534B089AD35C002B11D0514D535D77
:1009D000002B0DD1AE231B01D01801F019FF01210E
:1009E000021E00D0E1E0089B2398595506F0D4FC84
:1009F000494B089AD35C002B00D121E7474D535D4A
:100A0000002B00D01CE7AD235B01D01801F000FFE4
:100A1000021E00D0C4E00123089A022123985355F6
:100A200006F0BAFC0CE701235B422B9300232C93C6
:100A30002D934B462800009320992CAB2BAA09F04C
:100A400041FD032817D12B9D022D07D8AC210901A8
:100A50006943089B5B185A78002A67D1289806F0EA
:100A600019FCEDE6280008F079FF022800D9E7E636
:100A70000D9B1860E4E62900279806F08DFCDFE660
:100A8000280008F06BFF0500022800D9D8E6AC2347
:100A90001B014343089AD3185B781100002B00D147
:100AA000CEE6AC231B014343D618B278002A00D00F
:100AB000C6E62033C81801F0ABFE021E00D05AE192
:100AC000012329002398B37006F066FCB8E62800DD
:100AD00008F044FF0500022800D9B1E6AC231B0151
:100AE00043430899CE187278002A00D1A8E6B2785C
:100AF000002A00D1A4E62033C81802F073F80023BE
:100B0000020029002498B37006F046FC98E6C0461F
:100B1000C10A0000C20A0000811500008215000011
:100B200059240020FA09000020A107002C9A9B7884
:100B30002D9F042A00D10FE1082A48D1781E0E28E3
:100B400045D8002B00D058E140339846AC263601FA
:100B50006E43089B20369E194146300002F0EEF9A4
:100B60008246FFB23900300002F05AFA534603437E
:100B70009A460121300002F0D7FA53461843C0B21A
:100B8000002800D06AE1AC231B016B43089A0020C7
:100B9000D31842465F711A712B9D2C9A2D9F17E036
:100BA0000221229806F0F8FB4AE6229806F0F4FBB0
:100BB0001EE70021229806F0EFFB02E7099A4B009E
:100BC000D25A0E982770530806F0E6FBA4E47F2063
:100BD000AC2109016943089B59188B780190029355
:100BE000290013002998009706F0D6FB28E6B54B9C
:100BF0005046D15C9B4606F0CFFBB34B180098469D
:100C000001F0A2FA041E0C9000D0DAE00122AF4BF2
:100C10000899CA54AE4B9B46CB5C834200D030E16E
:100C20004021404602F08AF90F210443404602F079
:100C3000F7F901210443404602F076FA220002430C
:100C4000D2B2002A00D0B1E0F4220899A14B1201DF
:100C5000CA529C4B0998C95C06F09EFB013575E4AD
:100C60009D4B089E1800F1789A4606F095FB9B4B29
:100C70001800259301F068FA0400051E00D0B2E0C8
:100C800001237370B378834200D0F3E0259D4021A7
:100C9000280002F053F90F210443280002F0C0F9A4
:100CA00001210443280002F03FFA22000243D2B29D
:100CB000002A70D1F423089A1B019380884BD178C5
:100CC00018000993012506F067FB864E864F36E42F
:100CD000864B5046D15C9B4606F05EFB844B180069
:100CE000984601F031FA041E74D10122814B089913
:100CF000814FCA54CB5D834200D0B3E040214046CF
:100D000002F01CF9204307000F21404602F088F949
:100D100001210743404602F007FA3A000243D2B2EB
:100D2000002A2DD1F4220899744B1201CA526F4B3C
:100D30000998C95C06F030FB0135FFF70EFC38005E
:100D4000E1788B00F35898400300404683610A988D
:100D500006F022FBFFF7E0FB781E3B2800D936E7C0
:100D6000002B00D0A5E010339846EFE60020FFF7F7
:100D7000DBFAFFF70FFC2900229806F00DFB5FE578
:100D80005A4B089C3000E15C06F006FB0022594BF0
:100D9000E254FFF7E2FB089C524EE178300006F087
:100DA000FBFA0023504F6370FFF7C6FB454B089CCE
:100DB0003000E15C06F0F0FA0022444BE254FFF709
:100DC000C5FB5A46089B3800995C0C9A06F0E4FA79
:100DD000FFF7BCFB5A46089B995C0200380006F0FE
:100DE000DBFAFFF7BAFB089B3F4F0200D9783800C7
:100DF00006F0D2FA3B4EFFF79FFB089B20315818B4
:100E000001F0F0FE402382469846AC260899360150
:100E10008C466E43B4446246002320368E1930005F
:100E200041469370099202F089F8534603439A466B
:100E3000FFB23900300002F0F3F8534603439A46FC
:100E40000121300002F070F953461843C0B2002867
:100E500004D1300001F0DCFC00281BD02B9D2C9A23
:100E60002D9FB5E6404601F0BDFE2200089B040020
:100E7000DA5543E7259801F0B5FE089B04009D7004
:100E800004E7404601F0AEFE5A46089B0C99040068
:100E90009954C5E60123099A937074E60224200050
:100EA000FFF742FA164B0D931C60FFF775FB012408
:100EB000F5E7089B2031581801F094FE1023824674
:100EC0009846A2E7C30A000000260020C10A0000DD
:100ED000C20A0000C40A000090E90010401B002074
:100EE000BCE90010E4E9001008EA001083150000D6
:100EF000C03000208115000082150000841500001C
:100F0000D8440020F0B557464E464546DE46E0B58B
:100F1000884691461F00C3B0002B2AD003880024C6
:100F20001B065B0E0393174B9B4600239A4602E079
:100F30006419A7421DD93D1BF02D00D9F025434669
:100F40006A461B195BBA93824B4619190E2302A8F5
:100F50002A00181804F0A4FB5346AE1C0093584610
:100F60003300039905AA08F0E5FC8642E0D0FF2093
:100F700000E0002043B0F0BCBB46B246A946A04604
:100F8000F0BDC046F0100020F0B5DE46574645469D
:100F90004E46E0B5884692469B4685B0002B31D040
:100FA00001230688002436069946174F760E12E074
:100FB0005B461D1BF02D00D9F02553461A1900235E
:100FC0003100009338002B0008F0BEFCA84211D17C
:100FD0006419A34516D943466A461B195BBA938127
:100FE0004B46310000933800022303AA08F0A2FC0C
:100FF0000228DDD0FF2005B0F0BCBB46B246A946B2
:10100000A046F0BD0020F6E7F010002010B5080063
:1010100003F076FA002010BD10B50021064A040046
:1010200004F038FB52232380044B24616360044B9B
:10103000A360044BE36010BD18090000050F001009
:10104000890F00100D100010F0B5454657464E466A
:10105000DE46E0B5B64BC7B002AA05000E0003CBD2
:1010600003C2B44B170003CB03C2B34BC22201939C
:10107000B24B920098468323A8449B004046E9184F
:1010800004F00EFB102E35D0C22342469B002800F0
:10109000AB4902F0FDF8AB4B83469946AA4BC924F5
:1010A00000279A4603E05346EB5C032B18D0B0218F
:1010B000042342468901280002F0F2F80A210600C2
:1010C000280002F013F9013C0643E4B23743002C38
:1010D00000D12AE14B46EB5C7E2BE4D942231F432F
:1010E0005B463B43D8B247B0F0BCBB46B246A946CC
:1010F000A046F0BD954B02A9E818082204F0D0FAEA
:10110000934B0822E818390004F0CAFAC22140467D
:10111000890002F0CDF8A9238022DB00EC18210021
:10112000520006A804F0BCFA069A079B18219B18E7
:101130000E9A68469B180F9A40189B189B08089AAD
:101140000693099B9B18109A9B18119A9B189B0851
:101150000B9A07930A9B9B18129A9B18139A9B1839
:101160009B080D9A08930C9B9B18149A9B18159A30
:101170009B189B08179A0993169B9B181E9A9B18FD
:101180001F9A9B189B08199A0A93189B9B18209AE0
:101190009B18219A9B189B081B9A0B931A9B9B18D0
:1011A000229A9B18239A9B189B081D9A0C931C9BB0
:1011B0009B18249A9B18259A9B189B086A460D93A6
:1011C00080235218D3588422825868469B18A02244
:1011D0004018825868469B18A422401882589B18D1
:1011E0009B080E938823C35868468C224018825867
:1011F00068469B18A8224018825868469B18AC2263
:10120000401882589B189B080F939023C358684638
:1012100094224018825868469B18B0224018825881
:1012200068469B18B422401882589B189B0810935C
:101230009823C35868469C224018825868469B18D9
:10124000B8224018825868469B18BC224018825821
:101250009B189B081193C023C3586846C4224018AA
:10126000825868469B18E0224018825868469B18AE
:10127000E422401882589B189B081293C823C35835
:101280006846CC224018825868469B18E8224018CD
:10129000825868469B18EC22401882589B189B087D
:1012A0001393D023C3586846D42240188258684606
:1012B0009B18F0224018825868469B18F422401868
:1012C00082589B189B081493D823C3586846DC2285
:1012D0004018825868469B18F82240188258684681
:1012E0009B18FC2241188A5816A89B189B08C022FC
:1012F0000021159304F0CEF9802206A952002000A7
:1013000004F0CEF9C2214046890001F0D1FFC92383
:10131000DB0001A9E818042204F0C2F90D4B0422F5
:101320000021E81804F0B6F9AEE601231F43D7E622
:10133000F0EB001084450210A0FC01001405000031
:10134000F82C000016050000150500001C05000023
:10135000340500008C050000F0B55746DE464E46C9
:101360004546E0B587B08B4603A9050008004C4B05
:1013700052BAD0CBD0C001230A808B700A000B3345
:101380002800484901F084FF474BC9249846474B41
:1013900000279946464B01909A46A84403E05346DD
:1013A000EB5C032B17D0B0210423424689012800AF
:1013B00001F076FF0A210600280001F097FF013CAA
:1013C0000643E4B23743002C66D04B46EB5C7E2BE1
:1013D000E5D942231F431C2342463649280001F029
:1013E0005FFF019B384303431C214046DCB201F000
:1013F0005FFF314B5B445B1B022B19D95B469B079C
:1014000016D1A3235A46DB00EB5813602B4BEB5845
:101410005360A423DB00EB589360294BEB58D36057
:10142000200007B0F0BCBB46B246A946A046F0BDBE
:10143000A3235A46DB00EB5C1370224BEB5C53702A
:10144000214BEB5C9370214BEB5CD3701B4BEB5C43
:1014500013711F4BEB5C53711E4BEB5C93711E4B76
:10146000EB5CD371A423DB00EB5C13721B4BEB5CD6
:1014700053721B4BEB5C93721A4BEB5CD372104BA9
:10148000EB5C1373184BEB5C5373184BEB5C93736F
:10149000174BEB5CD373C3E701231F439BE7C046A5
:1014A0008C450210F42F0000140500001605000002
:1014B00015050000042C0000E7FAFFFF1C050000E2
:1014C00024050000190500001A0500001B05000096
:1014D0001D0500001E0500001F050000210500007D
:1014E0002205000023050000250500002605000058
:1014F00027050000F0B55746DE464E464546E0B5A6
:1015000087B08B4603A905000800344B52BAD0CBF4
:10151000D0C040230A80CB700A00343B28003049F9
:1015200001F0B6FE2F4BC92498462F4B0027994651
:101530002E4B01909A46A84403E05346EB5C032BE4
:1015400017D0B021042342468901280001F0A8FEEB
:101550000A210600280001F0C9FE013C0643E4B25E
:101560003743002C36D04B46EB5C7E2BE5D942232B
:101570001F43424610231E49280001F091FE019BA3
:101580003843034310214046DCB201F091FE5A4635
:10159000184953185B1B022B0DD993070BD1A323BA
:1015A000DB00EB581360200007B0F0BCBB46B2462E
:1015B000A946A046F0BDA3235A46DB00EB5C13709E
:1015C0000D4BEB5C53700D4BEB5C93700C4BEB5C79
:1015D000D370E8E701231F43CBE7C0468C450210D8
:1015E000F42F00001405000016050000150500008A
:1015F000042C0000E7FAFFFF190500001A0500009F
:101600001B050000F0B55746DE464E464546E0B5A0
:1016100087B08B4603A9050008003C4B52BAD0CBDB
:10162000D0C080230A80CB700A00743B2800384960
:1016300001F02EFE374BC9249846374B00279946B8
:10164000364B01909A46A84403E05346EB5C032BCB
:1016500017D0B021042342468901280001F020FE62
:101660000A210600280001F041FE013C0643E4B2D5
:101670003743002C46D04B46EB5C7E2BE5D942230A
:101680001F43142342462649280001F009FE019B0E
:101690003843034314214046DCB201F009FE214BDC
:1016A0005B445B1B022B12D95B469B070FD1A32324
:1016B0005A46DB00EB5813601B4BEB58536020007D
:1016C00007B0F0BCBB46B246A946A046F0BDA32376
:1016D0005A46DB00EB5C1370144BEB5C5370144BFD
:1016E000EB5C9370134BEB5CD3700F4BEB5C1371A3
:1016F000114BEB5C5371114BEB5C9371104BEB5C3A
:10170000D371DCE701231F43BBE7C0468C450210C1
:10171000F42F000014050000160500001505000058
:10172000042C0000E7FAFFFF1C050000190500006B
:101730001A0500001B0500001D0500001E05000025
:101740001F050000F0B5DE4657464E464546E0B55B
:101750000E000500140083B030008B46042101F018
:10176000A7FDF2782C4B2800EA54B2782B4B2C4979
:10177000EA5472782B4B0027EA543278013BEA5442
:10178000294B220AEA54294BEC549A46284BC92487
:10179000994680234A46DB01AB52F022254B1205C5
:1017A000EA50254A0433EA501F4B9846A8441023B8
:1017B000424601F06DFD019003E05346EB5C032BC4
:1017C00017D0B021042342468901280001F068FDAA
:1017D0000A210600280001F089FD013C0643E4B21D
:1017E0003743002C14D04B46EB5C7E2BE5D94223CB
:1017F0001F43019B58463B431F00042101F058FD45
:10180000F8B203B0F0BCBB46B246A946A046F0BD54
:1018100001231F43EDE7C0461B0500001A05000029
:10182000F02F000019050000140500001505000048
:10183000160500001C0500000501000CF0B5DE4691
:10184000574645464E468B46E0B5040083B0082116
:101850005846150001F02CFD5B46DA79364B200026
:10186000E2545B469A79354B3549E2545B465A79E6
:10187000344B0027E2545B461A79334BE2545B4603
:10188000DA78324BE2545B469A78314BE2545B464D
:101890005A78304BE2545B461A78A323DB00E254BB
:1018A0002D4B2A0AE2542D4BE5549A462C4BC92560
:1018B00099464A462B4BA352A423F022DB00120583
:1018C000E250294B294AE250234B9846A044142366
:1018D000424601F0DDFC019003E05346E35C032B3C
:1018E00017D0B021042342468901200001F0D8FC22
:1018F0000A210600200001F0F9FC013D0643EDB28B
:101900003743002D14D04B46E35C7E2BE5D94223B0
:101910001F43019B58463B431F00082101F0C8FCB0
:10192000F8B203B0F0BCBB46B246A946A046F0BD33
:1019300001231F43EDE7C0461F0500001E05000000
:10194000EC2F00001D0500001C0500001B05000019
:101950001A05000019050000140500001505000017
:10196000160500000080FFFF24050000050100109F
:10197000F0B5DE46574645464E468846E0B504007B
:1019800083B010214046150001F092FC4346DA7BFB
:10199000464B2000E25443469A7B454B4549E2546E
:1019A00043465A7B444B0027E25443461A7B434B41
:1019B000E2544346DA7A424BE25443469A7A414B28
:1019C000E25443465A7A404BE25443461A7AA423DF
:1019D000DB00E2544346DA793C4BE25443469A79C1
:1019E0003B4BE25443465A793A4BE25443461A7908
:1019F000394BE2544346DA78384BE25443469A78FE
:101A0000374BE25443465A78364BE25443461A78F1
:101A1000A323DB00E254344B2A0AE254334BE5544F
:101A20009B46334BC9259A4601235246A352A52310
:101A3000F022DB001205E2502E4B2F4AE2502A4BD7
:101A40009946A1441C234A4601F022FC019003E080
:101A50005B46E35C032B17D0B02104234A4689017F
:101A6000200001F01DFC0A210600200001F03EFCD0
:101A7000013D0643EDB23743002D14D05346E35CDD
:101A80007E2BE5D942231F43019B40463B431F0069
:101A9000102101F00DFCF8B203B0F0BCBB46B24619
:101AA000A946A046F0BD01231F43EDE7270500002E
:101AB00026050000E42F0000250500002405000095
:101AC0002305000022050000210500001F0500007D
:101AD0001E0500001D0500001C0500001B05000080
:101AE0001A05000019050000140500001505000086
:101AF000160500002C05000005010018F0B545464C
:101B0000DE4657464E46314BE0B51A00EDB08846EA
:101B1000143208A9040021CA21C10A001C3303CBD6
:101B200003C22B4B21009A46F422A2445046243192
:101B3000520003F0B5FD4346102B55D0F222254B41
:101B40005200E11850460CF0DBFD234B08220AA995
:101B5000E01803F0A5FDF42352465B0020001F4966
:101B600001F096FB00251E4BAB468046C9269946E0
:101B700025001C4F02E0EB5D032B25D0B021042390
:101B800052468901280001F08BFB0A21040028003D
:101B900001F0ACFB5B460443013E2343F6B29B4697
:101BA000002E00D19EE24B46EB5C7E2BE3D95D46D6
:101BB00042231D4340462843C0B26DB0F0BCBB4633
:101BC000B246A946A046F0BD5D46F3E78445021043
:101BD000140500001C050000F4060000182E00008B
:101BE0001605000015050000F24B0822E01808A9B0
:101BF00003F056FDF4215046490001F059FBAA2399
:101C0000DB0099468022A144494652002CA803F0EB
:101C100047FDE94B0CAEE318190080223000009319
:101C200003F03EFD2D9A2C9B2F989B18349A9B18FD
:101C3000359A9B189B082C930023F25E0221735E59
:101C4000D2181021735ED2181221735ED2180323AA
:101C5000D117194089182E9A890312183698090C41
:101C600012183798121892082D920622B05E042599
:101C7000725F80181425725F80181625725F309D80
:101C80008018C2171A401218319892104019389DC6
:101C900012044019399D1143401980082E900825DF
:101CA000705F0A27F55F40191827F55F40191A275A
:101CB000F55F90274019C5171D404019329D8003DC
:101CC000AC46339D000CAC443A9DAC443B9DAC44C7
:101CD0006546AD082F9501910E21755E0C21725E4F
:101CE00052191C21755E52191E21755EAC46944432
:101CF0006246D2171A4062449210120410430290B6
:101D00003C9A3D9812184498121845981218920857
:101D100030922221705E2021725E12183021705E96
:101D200012183221705E1218D017184080463F9862
:101D300090443E9A12184698121847981218920822
:101D400031922621705E2421725E12183421705E59
:101D500012183621705E1218D01718408446419828
:101D60009444409A121848981218499812189208E8
:101D700032922A21705E2821725E12183821705E1C
:101D800012183A21705E429D1218D0171840801820
:101D9000439A800352194A9D000C52194B9D5219C7
:101DA0009208339245466246AD03921012042D0C00
:101DB000154303952E21755E2C21725E52193C212C
:101DC000755E52193E21755E08A9AC469444624680
:101DD000D2171A40624492101204104304908022D9
:101DE000842008ADC91990350858AA5808A91218B6
:101DF000A020C919085808A91218A420C919085800
:101E00003D0012189208349242204022305EB25EA9
:101E100012185020305E12185220305E08A9121895
:101E2000D01718408446944488228C20C9198A58B7
:101E300008A9C919085808A91218A820C9190858CA
:101E400008A91218AC20C91908581218920835921E
:101E500046204422305EB25E12185420305E1218C2
:101E60005620305E08A91218D0171840801890220A
:101E7000C9198A5808A990469422C9198A58B021CC
:101E8000424417000A0008A949198A58B421BF180A
:101E90000A0008A949198A58801090463A0042441D
:101EA000920836924822B25E000490464A22B25E00
:101EB0005821715E424452185A21715E5218D1174E
:101EC0000D0098211D4057190A0008A990318D581E
:101ED0000432110008AA05959032059D5258AD189C
:101EE000B822110008AA05959032059D5258AD18E8
:101EF000BC22110008AA9032525805959046059DC3
:101F0000A84442469208379262469203120C15008A
:101F100005434C200595325E02309446305E5C22CB
:101F2000B25E604480185E22B25E08A99446844482
:101F30006246D01718406044BA0380100004120CA7
:101F400002430692C022C42090318A582CA9085816
:101F50002CA91218E02008582CA91218E4200858BF
:101F600012189208389262206022305EB25E121817
:101F70007020305E12187220305E2CA91218D01713
:101F8000184084469444C822CC208A582CA908586A
:101F90002CA91218E82008582CA91218EC2008586F
:101FA00012189208399266206422305EB25E1218CE
:101FB000742003E02405000054060000305E12186F
:101FC0007620305E2CA91218D01718408018D02225
:101FD0008958043288462CA98A58F0210F002CA970
:101FE000C95942445218F4210F002CA9C959801034
:101FF000521892083A926822B15E02328846B25E66
:102000007821715E424452187A21715E00045218A0
:10201000D1170D00D8210F0008A91D409031521989
:10202000CD59DC210F0008A907959031079DC959AA
:1020300092036D18F8210F0008A907959031C9592E
:10204000079D120C6D18FC210F0008A99031C95989
:1020500007958846079DA844414689083B916146FB
:102060008903090C0D0005436C20315E02308C465B
:10207000305E7C21715E60448C4684447E20A8469C
:10208000305E039D6044C1170B401B189B101B045E
:102090001A43019B02980C93069B0D9011934346A3
:1020A00004980E95059D0F9013920021602214A8AC
:1020B0001293109503F0EEFAC02200213CA803F021
:1020C000E9FA80222CA94846520003F0E9FA3100CF
:1020D0008022009803F0E4FAF4215046490001F010
:1020E000E7F82BE51D0001231D4363E5F0B5002251
:1020F00083B00F001349050001F0BCF86B469E1D2C
:10210000040032000021280001F0ACF86B460121E8
:10211000DA1D0443280001F0A5F80222044309490E
:10212000280001F0A7F8327820430023C0B2F02A3B
:1021300004D16B46DB790C3B5A4253413B7003B0F0
:10214000F0BDC046FF7F0000F0B5DE4657464E4664
:102150004546E0B5FA4B87B0039301230022049370
:10216000F84BF94903620093F84B0400C361F84B44
:10217000C926C25401F07EF804220500092120007E
:1021800001F078F840220F210543200001F072F899
:1021900003220A210543200001F06CF802AB9A1CCF
:1021A000E9490543200001F05DF801220C210543B7
:1021B000200001F05FF8022100220543FF312000DA
:1021C00001F058F88121002205434900200001F068
:1021D00051F88521012205434900200001F04AF809
:1021E0000122DC490543200001F044F80022D949CE
:1021F0000543200001F03EF88521032205434900F4
:10220000200001F037F8042101220543FF312000AE
:1022100001F030F800220C210543200001F02AF8DB
:1022200043220F210543200001F024F8012105433A
:10223000200001F05BF840220F210543200001F04F
:1022400019F801220A210543200001F013F8642146
:102250000543200001F04AF800220543BA49200056
:1022600001F008F80543A9460025BB4BAA4698464D
:102270001F002500A044012342460621280001F04A
:102280000FF80A210400280001F030F853460443F7
:10229000013E2343F6B29A46002E00D1CDE1EB5D1C
:1022A000012BE8D12C004B4655462B43DBB29B4615
:1022B000002B00D0B9E101220E21200000F0DAFF4E
:1022C00002220600A049200000F0D4FF01229E490E
:1022D0000643200000F0CEFF012206430621200025
:1022E00000F0C8FF350000230543AA469946C926D9
:1022F0002500994F012342462121280000F0D0FFFC
:102300000A210400280000F0F1FF4B460443013E7F
:102310002343F6B29946002E00D12EE2EB5D042B4A
:10232000E8D12C0055464E4600228749200000F097
:10233000A1FF2E4302AB9A1C83490643200000F004
:1023400091FF01220C210643200000F093FF0022A0
:102350007D490643200000F08DFF02210022064344
:10236000FF31200000F086FF812100220643490052
:10237000200000F07FFF8521012206434900200054
:1023800000F078FF012273490643200000F072FF3D
:10239000002270490643200000F06CFF85210322D3
:1023A00006434900200000F065FF04210122064396
:1023B000FF31200000F05EFF002268490643200044
:1023C00000F058FF432266490643200000F052FF08
:1023D000032263490643200000F04CFF01226049BC
:1023E0000643200000F046FF00225D49064320001E
:1023F00000F040FF00225B490643200000F03AFF56
:10240000002259490643200000F034FF00224E49C3
:102410000643200000F02EFF02AB9A1C4A490643F7
:10242000200000F01FFF012247490643200000F072
:1024300021FF092244490643200000F01BFF8023AE
:102440004A4F1B023A0000210643200000F020FF03
:102450000A223D490643200000F00CFF80231B02A6
:10246000FA1800210643200000F012FF0B22364923
:102470000643200000F0FEFE80235B02FA18A02332
:102480000021DB010643200000F002FF01222E495B
:102490000643200000F0EEFE01222B4906432000F7
:1024A00000F0E8FE032206210643200000F0E2FED1
:1024B00005210643200000F019FF002222490643AF
:1024C000200000F0D7FE02AB9A1C1F4906432000F3
:1024D00000F0C8FE01220C210643200000F0CAFED5
:1024E000002219490643200000F0C4FE8A21002280
:1024F00006434900200000F0BDFE162100220643DD
:10250000FF31200000F0B6FE8B2142220643490035
:10251000200000F0AFFE182100220643FF3120000A
:1025200000F0A8FE00220B210643200000F0A2FECE
:1025300002AB9A1C04490643200000F093FE17E00A
:1025400001000100B0EE0010FF7F0000B8F10010A4
:102550001409000002400000140500000F400000B4
:102560001A020000190200001B02000084F500108E
:1025700000220C210643200000F07CFE01220643CD
:102580000B21200000F076FE02AB0643DF1C05ABFA
:102590009A4601960123FA2699465D4676000BE09D
:1025A0000121200000F0A2FE4A463B781A4217D1D2
:1025B000013EB6B2002E13D03A000621200000F0F2
:1025C00051FE3B7805437F2BEAD952460721200074
:1025D00000F048FE53464A461B7805431A42DFD0B6
:1025E0002B00019D1D43EBB29B46002B1DD1022207
:1025F0006E49200000F03EFE0423424606006C496E
:10260000200000F04DFE04210643404600F050FE3D
:102610000422414605A803F043F8664B059A9A4206
:1026200014D005253543EBB29B46584607B0F0BCA5
:10263000BB46B246A946A046F0BD1D004B462B4303
:102640001D0001231D43EBB29B46EEE7282320002B
:10265000594A5A4900F01CFE002335009946584B50
:102660000543C9269A46574F019503E0E35D022BC7
:1026700000D18CE0B021042342468901200000F003
:102680000FFE0A210500200000F030FE4B460543F6
:10269000013E2B43F6B29946002E00D180E053460E
:1026A000E35C7E2BE2D94A4642231A439146019DC0
:1026B000F6234E465B0042464349200000F0F0FD01
:1026C0002E430643F422200052004146243002F0FB
:1026D000E7FF10212000FFF711FA8323C2229B009D
:1026E000920000990643E01802F0DAFF1021200062
:1026F000FEF7AAFCF32306439B002000E26933495E
:1027000000F0C6FD35002E4B0543A946C9269A4662
:1027100025002F4F02E0EB5D032B35D0B0210423C1
:1027200042468901280000F0BBFD0A210400280070
:1027300000F0DCFD5B460443013E2343F6B29B46BA
:10274000002E26D05346EB5C7E2BE4D95A4642231A
:102750001A432C0093464D465B461E4A03A92000AF
:102760001D43FEF7EFFF1C4A054304A92000FEF7B6
:10277000E9FF0543EBB29B4657E74A4601231A435C
:102780002C0091465546CEE52C004D46E4E7019DD0
:102790008EE75A4601231A432C0093464D46DBE749
:1027A0004A4601231A439146019D81E7FF7F0000BD
:1027B000FC2F00009E6C0B0C88EE0010D82F000040
:1027C0001605000014050000042C0000342C000045
:1027D0001505000080DB000064D9000070B5002200
:1027E0000E000A49050000F045FD720804000421AE
:1027F0002800D2B200F03EFD2E80044302222800C1
:10280000024900F037FD2043C0B270BDFF7F0000D9
:10281000F0B5DE4657464E464546C023E0B5002596
:10282000A3B09B000C93DB4BDB4AC71839000D9516
:102830000E950400FEF7E6FED64BD84A0490A25C43
:10284000E35CD74E5343DBB29946FF232375330035
:10285000A5610296243312AA23CB23C21B68CC465F
:10286000136016AB9A4633005246343323CB23C24F
:1028700023CB23C223CB23C223CB23C20F218846E1
:102880004946C84D09015346002201268B46129540
:10289000039714E00007070F01970C2F1BD8404641
:1028A0001F8807405846074360461F80019F7843B2
:1028B00041180431A161013204330C2A0FD0196888
:1028C0000029F8D02900D1400E42F4D047461878AC
:1028D000A1690742DED1188800094118E9E7A36918
:1028E000302118335046A361039F00F0E1FCA3237D
:1028F000DB009C46A44463463022514618000193F5
:1029000002F0CEFEA34BA84A2000E250F02234335E
:102910001205E250A54BA64AA649E2503C233A00D4
:1029200000F0B6FC00239B46A34BC92598469B4B61
:10293000039099465B46BB461F0004E04B46E35CB0
:10294000032B00D103E1B02104235A468901200062
:1029500000F0A6FC0A210600200000F0C7FC013DA3
:102960000643EDB23743002D00D103E14346E35C5B
:102970007E2BE3D93B001A0042231A435F4693465D
:102980005046302100F094FCA3698C4A0D930D232E
:102990000DA920000E93FEF751FF894A059012A958
:1029A0002000FEF7E5FF002286490690200000F097
:1029B00061FC052209210790200000F05BFC022247
:1029C00080490890200000F055FC042309907E49BE
:1029D00020000CAA00F05CFC774BB84699466F4B80
:1029E000C9259A46002726000A9004E05346F35C66
:1029F000032B00D1AFE0B02104234246890130000F
:102A000000F04EFC0A210400300000F06FFC013D94
:102A10000443EDB22743002D00D1A5E04B46F35C03
:102A20007E2BE3D9340042233E0047461E43029BDF
:102A30000FAA083323CB23C2644B0CAA9381C02373
:102A40002000D3736249B43B0FAA00F021FC00239D
:102A50009846594BC9259946504B0B909A46434688
:102A60000296B8461F0004E05346E35C032B00D1F6
:102A700075E0B021042342468901200000F010FCDB
:102A80000A210600200000F031FC013D0643EDB2B2
:102A90003743002D00D174E04B46E35C7E2BE3D935
:102AA0003B001A0042231A4347469046029E1823D1
:102AB0003A004849200000F0F3FB18218146380015
:102AC00000F0F6FB0C22019938000BF019FE424B86
:102AD0000222E1180FA802F0E3FD6B469A8FA3696A
:102AE000FF259A421FD1039A049B4D4613435A4631
:102AF0001A431300059A1A431300069A1A43130047
:102B0000079A1A431300089A1A431300099A1A43A2
:102B100013000A9A1A4313000B9A33431A43130003
:102B200042461A431543390020002C4AFEF76AFD3D
:102B30002B4B2843E35CC0B2002B01D00323184386
:102B400023B0F0BCBB46B246A946A046F0BD3B0050
:102B50005F469B4614E734003E00474667E73B006C
:102B6000029E47469846A2E7340001233E004746AE
:102B70001E435CE73B001A0001231A435F4693465D
:102B8000FEE63B001A0001231A434746029E904688
:102B90008DE7C046140500005054000015050000E4
:102BA00084450210A7050000D98003004C050000F1
:102BB00005010038C42F00001605000068D9000088
:102BC00070D90000FF7F0000FC2F0000544000007F
:102BD000F42F0000042C00001C050000C4E00000DD
:102BE0001A050000F0B5C646032300B582B06B4459
:102BF000984600234246019313703D49043301AACD
:102C0000050000F04DFB3B4B019A07009A4203D0B0
:102C1000394BEB5C002B2DD042460621280000F0FA
:102C200021FB43463C001B7804437F2B4DD80022F8
:102C30002800324900F01EFB002214210443280022
:102C400000F018FB002215210443280000F012FBBD
:102C5000042209210443280000F00CFB0222044353
:102C60002649280000F006FB2043C0B202B080BC19
:102C7000B846F0BD00222149280000F0FBFA1622D8
:102C800004001521280000F0F5FA01220443142164
:102C90002800274300F0EEFAF6240743FF340FE044
:102CA00042460621280000F0DDFA0A21060028002D
:102CB00000F01CFB013C0643A4B23743002C13D0A8
:102CC00043461B787F2BEBD9A6E742460721280015
:102CD00000F0C8FA43461A78044313007C33DBB291
:102CE000012BA4D91443A2E743461B781F4393E763
:102CF000FC2F0000FF04000014090000FF7F00000B
:102D0000174B70B50400C2180E000423002100F018
:102D1000C7FA134B257D9C46E25C124B0100E35C35
:102D2000954205D0FF2A03D00F4AA25C052A09D09C
:102D30005BB2002B03DA0D4BE35C1943C8B20023EE
:102D4000337070BD094D655D2A40052AF0D1DA0661
:102D5000EED5012333706346E35C2375F1E7C0468B
:102D600014050000170500001505000016050000F9
:102D7000F0B5DE46454657464E46E0B5674B060081
:102D8000C4182200836983B00D00002100F088FA86
:102D9000624B0700F35C804633752000318B00F0F6
:102DA00087FAB3699C46102B00D8B0E042239946BD
:102DB0002B000F21A944C233CB4610228A469946E4
:102DC000A846574C0097019714E056498B4200D112
:102DD0007EE055498B420AD14346581CA323DB00B1
:102DE000D218B1183A0002F05BFCB3699C467A191C
:102DF000944529D9494B5546D118735C775A1B071E
:102E00001B0F701819000E3129403F090A2900D8FC
:102E10005F434388151DA34200D16DE0D5D94349D6
:102E20008B425ED042498B42E1D1A3234046DB0076
:102E3000D2184330B118FF303A0002F031FCB369C8
:102E40007A199C469445D5D8009A4B464546D946B2
:102E50009046019F4C4619000320A94600228D5E32
:102E6000EA170240521992100A8022880231D209D0
:102E700022800234A342F1D14D4628004230012382
:102E8000FF21FF3002E00133412B06D0EA5C002A2B
:102E9000F9D1C1540133412BF8D16346A22225490F
:102EA000F318715A2448D2009A5C49BA1B5C12028A
:102EB00089B21343994203D002231F43FBB29846C1
:102EC000404603B0F0BCBB46B246A946A046F0BDA2
:102ED000A423B218DB00D35C42461370B3699C464E
:102EE00085E7A323DB00D218B11848463A0002F068
:102EF000D7FBB3699C467AE7A323DB00D218B1184D
:102F000058463A0002F0CCFBB3699C466FE7422377
:102F100099462B00A944C2339CE7C0461405000023
:102F2000C4DE0000B454000084DB000044DF000075
:102F300084E000001C05000011050000F0B5C64645
:102F400005000E0000B5102939D07F24402928D172
:102F50002C4B2D4A9C4684446146A327E046FEF74D
:102F6000FBF91023294AFF00EB55AB540122284BF3
:102F70000400EA544146244A2800FEF7F9FC254A99
:102F8000044341462800FEF73DFB1E4B224A044302
:102F9000EA52224B414628001E4AEB53FEF74EFCF4
:102FA000044331002800FEF7A9FD31000443280046
:102FB000FEF74AF82043C0B280BCB846F0BD114BC2
:102FC000114A9C4684446146A327E046FEF7C4F9B3
:102FD00040230E4AFF00EB55AB5404220C4B040077
:102FE000EA544146084A2800FEF7C2FC094A044355
:102FF00041462800FEF706FB024B084A0443EA520A
:10300000054BC7E71405000038AD00001A050000A5
:103010001D050000505400000808000004040000D2
:10302000F0B5DE46574645464E46374BE0B5984626
:10303000804483B00C00354A41460500FEF75AFA39
:10304000334B0421EC5483464046994600F030F956
:10305000A323DB0004224146E81802F021FB54229E
:10306000294B4021EA5458234A46AB540022294BAD
:103070002800EA549A46284BC924E954274B313991
:10308000EA54EB18D9700A39197104395A709A70D8
:1030900059719A71224B0C32EA542249102342464C
:1030A00000F0F6F80027019003E04B46EB5C032BA1
:1030B00017D0B021042342468901280000F0F0F81F
:1030C0000A210600280000F011F9013C0643E4B291
:1030D0003743002C15D05346EB5C7E2BE5D94223B9
:1030E0001F435C46019B404604211C4300F0E0F86E
:1030F0003C43E0B203B0F0BCBB46B246A946A04692
:10310000F0BD01231F43ECE71405000058540000F4
:103110001505000016050000170500001C0500003D
:1031200023050000F02F0000F0B5DE464546574667
:103130004E460023E0B585B00393424B0C00984601
:1031400080444146404A0500FEF75CFA8346012C64
:1031500000D170E0032C6BD1022201233B49039381
:103160006C543B496A540821404600F0A1F8A3235F
:10317000DB0008224146E8180BF0C2FAAD22314BC1
:103180008021EA54314B28009A4630235246AB54F2
:103190000022304BC924EA5499462D4B0027E954AC
:1031A0000933EA547139EB18D9700A3919710439A5
:1031B0005A709A7059719A71274B1032EA54274904
:1031C0001423424600F064F8019003E05346EB5CA0
:1031D000032B17D0B021042342468901280000F0B8
:1031E0005FF80A210600280000F080F8013C064341
:1031F000E4B23743002C21D04B46EB5C7E2BE5D963
:1032000042231F435C46019B404608211C4300F0BB
:103210004FF82800124A03A9FEF794FA3C432043D2
:10322000C0B205B0F0BCBB46B246A946A046F0BD50
:103230007F239B4697E7032200238FE701231F4349
:10324000E0E7C0461405000030AD000015050000A1
:10325000170500001605000027050000EC2F0000F0
:1032600064D90000030010B500699C680123A047E1
:1032700010BDC04610B582B0030010006A465C68FD
:103280000732107018690123A04702B010BDC04674
:1032900010B50469A44644686046A04710BDC04606
:1032A00010B50469A44684686046A04710BDC046B6
:1032B00070B50E0082B0002915D0040000252378D7
:1032C00062781B0612041343E27820001343A278AD
:1032D00001A912021343043504220193043402F0BD
:1032E000DFF9B542EBD302B070BDC046030010B5A4
:1032F0000069DB68984710BDD023F0B5DE464E4626
:10330000454657461B061A68E0B5A64B910088460D
:10331000595853009B18A44A1B0183B09B189B4625
:1033200000260191002939D0A04B0F279A465A4612
:10333000F30808339B009D58012334009946083652
:10334000002D22D0390029402D0900291AD05346DA
:1033500042469A582300E240203BDB1713404A467E
:1033600013420DD107220800224092009040020033
:10337000E3088F483C339B001A502000019B98477C
:10338000002D02D00134B442DCD3202ECFD103B0C3
:10339000F0BCBB46B246A946A046F0BD0F23834A07
:1033A0000192CC08220058460F00083292001258B1
:1033B0000837002A00D1CDE01800104084461009DB
:1033C00013421AD04546019E7559AA4620256D42E2
:1033D000A94689444D46ED17A9465546CD402E00D5
:1033E0004D4635400126354204D16646704D3C3489
:1033F000A4006651002800D1ACE01C000440A446A3
:10340000140A034219D0481C81464046019D4E468D
:10341000285805000800F5401F38C017284001252E
:10342000284207D165462D01F0082E003C30604D42
:1034300080004651002C00D18CE0180020408446CA
:10344000100B234211D08C1CA1464446019D4E46D0
:103450002C5925000C00F5401E3CE4172C4001259A
:103460002C4200D181E0002874D01C000440A44606
:10347000140C034210D0C81C81464046019D4E46A4
:10348000285805000800F5401D38C01728400125C0
:10349000284273D0002C5DD0180020408146100DCA
:1034A00023420ED00C1DA4464546404C6459654647
:1034B000EC4025000C001C3CE40F2C4267D0002897
:1034C00048D01C000440A446140E034217D0481DE7
:1034D00081464546354840594D46E84005000800BC
:1034E0001B38C00F284208D1654648462D052E00DE
:1034F000C0082F4D3C3080004651002C2AD01800C7
:1035000020408446120F234229D0454627488C1D6F
:1035100082464059E040050008001A38C00F284292
:1035200006D1E0086446224D3C3024068000445118
:103530000731002A0ED05046444604590800CC40BA
:103540002038C00F204205D1C90819483C31120764
:1035500089000A50202F00D119E7390021E7002AFD
:10356000F8D0124807318246E5E765462D02F40897
:103570002E003C340E4DA400665174E765462D03C1
:10358000F0082E003C300A4D8000465182E74D463F
:1035900064462D042E00E408054D3C34A400665119
:1035A0008DE7C046D43F002000410140DC440020AC
:1035B0000040014010B54024074A83009A18126861
:1035C000C0005440C0222240044C1B191A60044B16
:1035D000C018416010BDC04604C0014004D0014085
:1035E00000400140064B8000C3181B68C9009200D0
:1035F0000A435A400C231340024A80180360704764
:1036000004C0014004D00140D02330B507241B067C
:1036100015001A6853009A18C308204080008140A2
:103620001800084C3C30120180009B0001519B188F
:10363000002D03D0044A9B18196030BD034A9B1823
:103640001960FAE70040014000610140007101404B
:10365000F0B5C40846469846A3004F46994607234E
:103660000340D0259B00D64699402D06C0B51700D3
:103670000E002A68002F1AD12B4B3C34A400E150D5
:1036800053009B181B01294A4B449B1819602C6856
:10369000274FA4003B59002B25D04346002B38D0A0
:1036A00043463B51E0BCBA46B146A846F0BD204F68
:1036B00093009A46FB58002B1FD04346002B2DD079
:1036C00053464146F950184B3C34A400E650530091
:1036D0009B181B01174A4B449B1801210D201E60AB
:1036E00000F022F9DEE74346002BDBD000220D205C
:1036F00011493B5100F078F9D4E74346002BE2D062
:1037000052460D20BB500C49002200F06DF92A688A
:10371000D9E70D20084900F043FAC1E70D2006491A
:1037200000F03EFA2A68CBE70040014000710140FA
:10373000D43F002000610140F93200100123D02263
:103740008340120693629361084A83009A181168B5
:103750004022514080320A400549C0005B181A607F
:10376000044BC018052343607047C04604C00140A5
:1037700004D00140004001408023DB051868000FA1
:103780007047C0460FB400B5084883B003F082FD0F
:10379000049B002B07D005A91800019103F066FBDC
:1037A000034803F077FD012003F078FBFCEB0010E9
:1037B000F8EB001070B58C461600EFF3108472B66B
:1037C0000F490B68002BFCD0BFF35F8F6346DB080B
:1037D000C5180722C05C63461A40012393401A00B3
:1037E0000240034207D118432870BFF35F8F0A607D
:1037F00084F3108870BD61463000FFF7C3FFC046F8
:103800002C0100D0F8B5CE4647468C4680B51C004A
:10381000EFF3108872B61C490B68002BFCD0BFF385
:103820005F8FA24221D80723994602E001329442D9
:1038300018D34946012611408E40D308C718C35CEF
:103840001E42F3D1100033433B70BFF35F8F002261
:103850000D4B1A6088F3108800280EDBC0BCB946F7
:10386000B046F8BD01204042EFE7BFF35F8F002371
:103870000B6088F31088012040426346002BEDD096
:103880000898FFF77FFFC0462C0100D0044A10784B
:10389000431CDBB2172B00D9102313707047C046AE
:1038A0000010002000B5054B83B0010000931822E2
:1038B0001F230348FFF7A6FF03B000BD0CEC001068
:1038C000E43F00200021044B044ABFF35F8F02C392
:1038D0009342FAD17047C046000100D0800100D069
:1038E000084B094A1360094A1360094A1360094AE0
:1038F0001360094A1360094A1360094A1360094AB0
:10390000136070478080808000E400E004E400E001
:1039100008E400E00CE400E010E400E014E400E05F
:1039200018E400E01CE400E01F2318401E3B834025
:10393000002905D0C021044A490053501360704744
:10394000802201498B50FAE700E100E00122824029
:10395000034B1B6813405A1E9341D8B27047C046B0
:1039600000E100E001238340014A13607047C04634
:1039700000E200E0054B10309B688000C358044A09
:1039800000209B1A47229A424041704700ED00E018
:103990000410002010B5EFF3108C72B60F4A1368B4
:1039A000002BFCD0BFF35F8F0D4B10309B68800065
:1039B0001B580C4A934201D099420CD1084B9B688A
:1039C0001950BFF35F8FBFF35F8F0022034B1A6064
:1039D0008CF3108810BD01F0FDF8C046240100D022
:1039E00000ED00E0C1010010F0B5DE4657464E463E
:1039F0004546E0B58B4685B0EFF3108872B61600E9
:103A00005B4A1368002BFCD0B246BFF35F8F0025E2
:103A100058494D57002D00DAA8E06B00564A019333
:103A20005B199B00D418A77910300F7053498000A0
:103A3000896884460F58B91A472933D801203900BC
:103A40008143CE79564500D86AE0A1465646039395
:103A500007E05800C01880001018C479B4424DD94E
:103A600001000623CB56002BF3DA081D4C46B24664
:103A700081460293424B4E46043CA41B2405414E12
:103A8000640D34438C808D71019949198900521855
:103A90009380029B3C4993715346D3715B461160FE
:103AA000936017E039498F4260D139490127D152DB
:103AB00038490233D3180439CB1A324A1B055B0D3F
:103AC00013436380344BE671A380FF23A3715B46ED
:103AD0002743A3606246294B9B689F50BFF35F8FCB
:103AE000BFF35F8F0022224B1A6088F3108805B065
:103AF000F0BCBB46B246A946A046F0BDB2460E1D7C
:103B00004C46B14688880293039B40050015043358
:103B10004844D318C31A1B051A485B0D0343AAE790
:103B20009E1CB14691444E460F001C4DBF1A7F416A
:103B30007D432D0D164FA571D752164F0433043F08
:103B4000D318BF1BCB1A3F05043B7E0D1B050D4F41
:103B50005B0D3E431F435346E3715B46A3600A4B34
:103B6000A7806680044327000B60B3E701F032F8BA
:103B7000240100D0114600200410002000ED00E0D8
:103B800001BD000000E0FFFF01488047C1010010B7
:103B900000A1FFFF4C10002001BDFFFFAAAA0000FA
:103BA000F0B5DE4657464E464546E0B583B0EFF3E6
:103BB000108972B65D4A1368002BFCD0BFF35F8F8B
:103BC0005B4B5C4E9A68030010339C001259984678
:103BD000B2423BD08A424CD0574FBC46D71B472FEE
:103BE00034D8564B1F271D680740AA460125BD4003
:103BF00080270195DD51BFF35F8FEFF30585AB465D
:103C0000002D38D101231D00854028005546054070
:103C1000100098438768AA46B94208D17CE0730037
:103C20009B199B0063449F68B9422DD0180006265B
:103C30008657002EF3DAB9424CD05346002B1ED0E3
:103C4000C0213E4B0198490058501860384B9B6882
:103C50001A51BFF35F8FBFF35F8F0022334B1A609F
:103C600089F3108803B0F0BCBB46B246A946A04613
:103C7000F0BD3200EAE7A845C4D000F0ABFF8023D6
:103C80002E490198C850E1E70627DF57002F22DBB5
:103C90007900C81985002E006644B0689860F079F4
:103CA000D871062030569871002826DB6046B68809
:103CB000C01A76053615761980190005204E400D7C
:103CC00030439880CB191F499B0008786344987152
:103CD0000F70B2E703005946002910D1FF318171FE
:103CE00019498180174865460178997117495B1B0E
:103CF0005B415943090D01709FE71348E1E71449FF
:103D00001448C91A08394E02760D3043988012487B
:103D100049080143D98090E70627C7570300002FC1
:103D2000B6DA59460029EAD13200DBE7240100D097
:103D300000ED00E0C10100100410002000E100E0EF
:103D400000E0FFFF1146002001BDFFFFAAAA00000E
:103D50005610002000F0FFFF00F8FFFF012303438F
:103D600070B59C46EFF30581EFF3108572B6274AD4
:103D70001368002BFCD0BFF35F8F254A0400254B4E
:103D8000A41A644163431B0D234C8900A6685BB2EF
:103D90007658664524D006215156994224D01221E6
:103DA000515699422AD01E215156994228D02A2193
:103DB0005156994226D036215156994224D042215B
:103DC00051560524994210D0144A1178137081710C
:103DD000BFF35F8F00220D4B1A6085F3108870BD12
:103DE000A2680F4C5450EFE70024610009198900C4
:103DF0005218FF2191710B499180E5E70124F4E706
:103E00000224F2E70324F0E70424EEE7240100D0C3
:103E100004100020AAAA000000ED00E011460020D6
:103E2000C101001001BDFFFF00B5074B83B00100C9
:103E30000093002205230548FFF7E4FC002801DB7E
:103E40001F23181A03B000BD28EC001015460020EF
:103E5000024BC918890001607047C0464000003419
:103E600070B5114C114DAC420FD2FF262368002BC8
:103E70000CD0FFF70BFD01002000FFF7E9FFA68043
:103E8000BFF35F8F0834AC42F0D370BDFFF7FEFC88
:103E900001002000FFF7DCFF2671BFF35F8F0834BD
:103EA000AC42E3D3F1E7C046BC170020C4170020A2
:103EB00010B50400FFF7EAFC01002000FFF7C8FF7F
:103EC000FF232371BFF35F8F10BDC04610B5040000
:103ED0000120FFF7E7FC034BC01880002060BFF310
:103EE0005F8F10BD40000034034BC918890001608A
:103EF000BFF35F8F7047C046400000340A4B19681B
:103F0000EFF3108072B60A68002AFCD0BFF35F8F0F
:103F10001B68BFF35F8F00221A6080F3108840BFD8
:103F2000002000217047C046F0450020F0B5DE4675
:103F300057464E464546E0B585B0EFF3058303226C
:103F40001A40B34B91005F58012393409B46029265
:103F50005A468846AF4B1A60AF4B03935B46AF4857
:103F600043630823FE5E002E37DABB881BB2002BAA
:103F700000DBA4E0BB79002B00D0E5E00823F95E6C
:103F8000002920DB4B007A695B18DB00D3189D68A1
:103F9000DC686B1C00D104E1A04801004144826A46
:103FA0000B69AE1A9B1A9E4215D30123026A02982E
:103FB00083401A420FD0994800F0C0FB8C4202DCCB
:103FC000CCD18542CAD940BF05B0F0BCBB46B24691
:103FD000A946A046F0BD0D61EDE77A6973009146F0
:103FE0009B19DB0099444B469C68DD6800F0A6FBFA
:103FF0008D42BADC00D1F6E0002D00DADBE04A4663
:104000004B4652691B699246039A934200D1CCE019
:104010004A460821785E528800045146104398476A
:10402000009001910099019A0B00134300D1C2E066
:1040300013000A00002B00DBD9E020002900801AC1
:1040400099414B469860D96000229B5E002B00DAB4
:104050008BE75D007C69EA18D200A218009494688E
:10406000D268A2468A4200DD7FE702D1844200D9AD
:104070007BE70824A4463B81BC44009C00972F00AA
:104080006546B4463E0006E05E00F218D200A21873
:104090009768D268BA468A4207DC00D1B4E0F318C8
:1040A000DB00E518E35E002BEEDA66464A46009F29
:1040B00013802E80BB881BB2002B00DA5AE73A69C6
:1040C000EFF3108172B61368002BFCD0BFF35F8F43
:1040D0000123BE885B42BB8036B23B69BFF35F8F72
:1040E00000221A6081F31088002E00DA42E73B00BC
:1040F00008333A0099467D6973009B190824115FC3
:10410000DB004846EB18002913DB9C680093A446AB
:10411000DC6806E0A34240D00023F95E38000029A5
:1041200006DB4F007F18FF00EF19FB68A342F1DDAB
:10413000009B068000201E5E1980002EDCDA17002E
:10414000BB79002B00D119E70023BB710823F95E6E
:104150004B1C00D137E73D000835AC467C6903E0D5
:1041600084464B1C00D109E74B005B18DB00E018CC
:104170000A00E15E43881BB2002BF1DA01256D4293
:10418000EE178560C66008257B5F9342E9D06346E1
:1041900019803B8903803A81E3E7BB686345BBD95B
:1041A000C6E7631C00D0F7E605E7534650461B6997
:1041B0009847002823D14B461B883A693B81EFF38F
:1041C000108372B611680029FCD0BFF35F8F494697
:1041D0007A880A803A697E80BFF35F8F0021116080
:1041E00083F31088C1E6844200D805E7BDE60B489A
:1041F00000F0A4FA009B019CC018614121E75346DE
:104200000CCB009201930DE7824500D847E74CE7BD
:10421000C44400203C7005402D3F00100040054084
:1042200070B52D4C2569002D04D00A212B48FFF7CD
:104230000FFE70BD2A4E0321294800F075FAE66092
:10424000FFF724FB274B0322C018D02322701B0644
:104250001B6801216370244B8000A3600F23206141
:104260000220638063694942A18019800231198666
:1042700047311D83585218315A5275325C39995260
:1042800018320131995218320131995218320131E4
:104290009952083518329D5202311832995218320B
:1042A0000131995218320131995218320131995223
:1042B0001832013199521832013199520B4B0C4985
:1042C000DC6001303562FFF765FB01210320FFF759
:1042D0002BFB084B1D60A8E770100020F045002064
:1042E0000040054040000034FFFF1000C44400209F
:1042F0002D3F0010386005400048704770100020C6
:10430000F8B51F0008AB1B7804001600002B07D17E
:1043100000F01CFA32003B00121A8B41002B51DBDB
:104320002269EFF3108C72B61368002BFCD0BFF338
:104330005F8F0223E15E256900293ADB4B0060694B
:104340005B18DB00C218C35A6380BFF35F8F002382
:104350002B608CF31088069B9660D7601361079BD7
:104360005361538801335B045B0C181C002B1ED077
:1043700083B25080080418432569EFF3108672B6A3
:104380002B68002BFCD0BFF35F8FA3881380A18024
:104390002369BFF35F8F00221A6086F310882378A9
:1043A00001329A400849E3685B181A60F8BD0120A1
:1043B000DEE7BFF35F8F00232B608CF310880120B2
:1043C0004042F3E70020F1E73C20000070B582B0E6
:1043D0000092019301000269EFF3108472B6136832
:1043E000002BFCD0BFF35F8F0223C85E0D6900284D
:1043F0003FDB4A69430016001B18DB00D218F35A52
:104400004B80BFF35F8F00232B6084F31088069BE3
:104410001361079B5361009B019C9360D460538898
:1044200001335B045B0C1D1C002B20D0ACB20304D9
:10443000558023430D69EFF3108C72B62C68002C65
:10444000FCD0BFF35F8F8C88148088800A69BFF32B
:104450005F8F002010608CF310880A780130904044
:10446000CA68084952181060180002B070BD0125D2
:10447000DCE7BFF35F8F00232B6084F31088013BE0
:10448000F2E7C0463C20000010B543890A1493426D
:104490001ADD53009B184269DB00D3180469EFF35F
:1044A000108C72B62268002AFCD0BFF35F8F5A8846
:1044B000090494B2090C8A4208D00369BFF35F8FE4
:1044C00000221A608CF31088002010BD094A224394
:1044D0005A80012302698371BFF35F8F002111604D
:1044E0008CF31088027804499340C2680120521866
:1044F0001360EAE70080FFFF3C200000407870472F
:10450000F0B5C64600B582B0040000F01FF9FA22EB
:1045100006000F00200000230021920001F062F845
:104520008019794104000D1E02DA01242E4D6442E7
:1045300006267642F71736196F41AF4214D811D0CC
:1045400000F004F932003B00121A8B41002B15DCFD
:10455000002B46D02000290000F038F902B080BCC2
:10456000B846F0BDA642EBD90026002700F0EEF8D1
:1045700032003B00121A8B41002BE9DD00F0E6F817
:1045800032003B00121A8B41002B0ADB00230193FF
:10459000164B3200009316483B00FFF717FF01301F
:1045A000D8D000233900B0469C46124A1248536ABC
:1045B000994204D8966A4645CCD29942CAD1066837
:1045C000EFF3108772B63368002BFCD0BFF35F8F18
:1045D0000368BFF35F8F66461E6087F3108820BFB5
:1045E000E5E7002AB6D0C9E7FFFFFF7FFD3E0010D8
:1045F0007010002000400540F0450020F0B5CE4688
:10460000474680B504000D0085B0EFF30583894669
:10461000002B32D1404E336883422AD03F4FFB6893
:104620003A7898461800039200F088F8039A131D10
:1046300042469B009B5822001B1A9C462B00121AD4
:104640008B411900002310008B4225DC22D020BFB3
:10465000334B586A48452BD3401B9A6A431E9841F6
:104660000023A2425B41184305B0C0BCB946B04626
:10467000F0BD73688B42D1D1E9E7294900204B6A2C
:10468000AB42F1D38A6A5B1B591E8B41A242404167
:104690001843E9E78445DAD900F058F822002B00E6
:1046A000121A8B41002B05DA1D4A536A4B4529D259
:1046B0000020D9E7002301931A4B22000093380011
:1046C0002B00FFF783FE0028EEDD154B30C65A6A3B
:1046D0004A4515D39B6AA34210D301003800FFF767
:1046E000D3FE0F4A0020536A4B45BDD3926A5B1B31
:1046F000591E8B41A24240411843B5E74A45ECD1CF
:1047000020BFEAE70020926A5B1BA24240415A1E8A
:1047100093411843A8E7C04668100020701000209D
:1047200000400540FD3E001010B5024A0248FFF768
:1047300041F810BD44EC0010E83F00200300416A3E
:104740000A00986A596A8A42FAD17047034B596A3B
:104750000A00986A596A9142FAD1704700400540B0
:1047600070B505000E00184A536A1900946A536A1E
:104770008B42FAD1200019002C00350024184D413D
:10478000AB4216D813D0104B2A005B6A9D4203D966
:104790000D494B6A9342FCD3934207D10A4A02E087
:1047A000516A994202D1916AA142F9D370BDA042E7
:1047B000E9D9054B5B6A1C005A1CEFD00122012489
:1047C0006442E5175242E3E700400540064A536A57
:1047D0009942FCD807D1044B02E05A6A914202D1B7
:1047E0009A6A9042F9D8704700400540F8B5DE4615
:1047F0004E4645465746E0B505008B4618000A99D7
:10480000914600F039FB0A9B6C001E026419304B84
:10481000A400E418636880469E4200D966602F1F9A
:10482000FBB29A46012B2FD9C0238022294FAD001D
:104830009B0179591201E3181A6000291BD14B46DC
:1048400022685B015340E022134080225201A218EB
:1048500013605346012B2FD9802380229B01E3183C
:1048600012011A60434666607B51F0BCBB46B246FB
:10487000A946A046F8BD786900F0FEFA0130430071
:104880001B18033BFDD2DAE75B46012BCCD1C023DA
:1048900003229B01E3181A60023AA3681A42FCD073
:1048A0004A46236852015A40E023134080225201B5
:1048B000A218084F1360AD005846032321684140F9
:1048C0000B40136001228240A3681A42FCD0C3E768
:1048D00000800040EC3F0020F0B5D6464F464646EB
:1048E000440098462418324BA400E41863688A46B2
:1048F0009146C0B5FF2B02D880235B006360061F82
:10490000F6B2012E2FD9C02380222A4F85009B01A9
:1049100079591201E3181A6000291BD14B4622680D
:104920005B015340E022134080225201A218136021
:10493000012E30D9802380229B01E31812011A60D6
:1049400080235B00636043467B51E0BCBA46B146BE
:10495000A846F0BD786900F08FFA013043001B18BB
:10496000033BFDD2DAE75346012BCCD1C02303220F
:104970009B01E3181A60023AA3681A42FCD04A4627
:10498000236852015A40E023134080225201A218AA
:10499000084F1360850050460323216841400B40B7
:1049A000136001228240A3681A42FCD0C2E7C046CD
:1049B00000800040EC3F0020014B8000C058704751
:1049C000EC3F0020F0B5C646040000B523481600B1
:1049D00098460D0000F050FA0100300000F04CFA4B
:1049E0004346069A1B04120313439C4623680600A1
:1049F000002B22DB1A4B1B48E218531E9A418023DE
:104A00005242120B9B011203D218174B1A60174B1C
:104A10001A60130001688B43FBD12122144B2560DF
:104A2000E318A6601A602268002AFCDA6246E26097
:104A300008221A6080BCB846F0BD3F2322681340AC
:104A4000AB42D7D1A3681B051B0D8342D2D1EE2206
:104A5000E368D20213406345CCD1EBE7001BB700FB
:104A60000040FDBF08C0004000E0004000F00040F2
:104A70000430000010B580241C4BE4051C600028A5
:104A80001AD001231A4C18431A4BDC611A4C4440CB
:104A90001C62596298628021144BC905196017483D
:104AA00017490860E021C9041960002A07D1802253
:104AB000144B12061A6010BD0E4BD861EBE7530180
:104AC0009B1A9B009A18802312015B049A4209D218
:104AD00013000D490B60074B5A608022094BD20529
:104AE0001A60E8E7094B1A00F3E7C04600B005403A
:104AF000D3C007B0008005402D3FF84FFCFF0100F8
:104B00000820014000A00540B4440020FFFFFF0042
:104B10008023024A9B000B43D3627047008005400C
:104B2000002310B50100988A1B8B984710BDC04622
:104B3000162310B5010018885B88984710BDC04641
:104B4000F8B54746CE4680B50F1E18D014239946B7
:104B5000043304000025012698464B461888434636
:104B600021681B88984701C4431E984101350640BF
:104B7000AF42F2D13000C0BCB946B046F8BD012604
:104B8000F8E7C046002370B504000D00988A054977
:104B90001B8B984703000020002C01DB0130A04054
:104BA0002900984755420000AA23064A1B011360BA
:104BB0008D235B00D3600449044B19605368002BBC
:104BC000FCDA70470040024000B0FA00006002408A
:104BD0007047C04610B50148FEF7D4FD68EC0010E0
:104BE00070B5074D074EB54209D20024013E761B31
:104BF000B608013608CD01349847B442FAD170BDE9
:104C0000B0E70010ECE70010054B064A06491A60B1
:104C1000064A074B1A6010000B689843FBD1704797
:104C200000E00040BFCDFBFE08C00040FE7F3C001E
:104C300000F00040044BDB6C002B03D18022034BBF
:104C4000D2021A607047C046000011504C2011502B
:104C5000044A054B1A60054A1368DB018033FBD117
:104C60007047C046FFFFFF0100F0004008C0004051
:104C70004022034B9A675A671A67DA667047C04644
:104C800000F0014010B5FEF71DFE10BD70B52749BC
:104C9000274E284D761AB4082200302C00D9302235
:104CA0002800920000F0FCFC2F2C3BD823002A3B6C
:104CB000214A052B1BD93020AE197107001B260095
:104CC000CB0F002902DAA1006A50661CC01AE31853
:104CD0009B004108EB18C900C9181A605A600833D4
:104CE0008B42FAD1012303421CD098438419A300BC
:104CF000EA50631C2F2C15D09B00EA50A31C2E2CCD
:104D000010D09B00EA50E31C2D2C0BD09B00EA50E6
:104D1000231D2C2C06D09B00EA50631D2B2C01D0A8
:104D20009B00EA50054B9D6070BDC046000100101D
:104D3000C001001000000020C101001000ED00E0E3
:104D4000002310B5294C82B0A367FFF72DFF012285
:104D5000274B1A60636C012BFCD10322254B1A6090
:104D6000224A936B012BFCD1013300930121224A8B
:104D700022480433FFF726FE052301210093204A31
:104D80002048FFF71FFE0022022104201E4BFFF7E0
:104D9000A3FD0022012105201C4BFFF79DFD0022F1
:104DA000002107201A4BFFF797FD00220021082061
:104DB000174BFFF791FD8023DB00009300220021B9
:104DC0000920134BFFF712FD0022104B0021062093
:104DD000FFF782FD0420FFF7EFFD0E4900F04CF8CD
:104DE00001000020FFF794FE02B010BD00800040DB
:104DF0003CB0004030B00040002F685900800240B5
:104E0000008C864700C00240001BB7004059730762
:104E1000006CDC0240420F0001480421014B18479E
:104E200090100020414B0010124A936F9B0815D23E
:104E30009066D166002905D0FFE7FFE7FFE7516FD5
:104E4000106F704704B580210906C2175140002831
:104E500000D0C84309F05CFC002104BDF0B5146E1D
:104E6000556E576F166FFFF7E3FF14665566576769
:104E70001667F0BD000000D0114A936F9B0813D253
:104E800010665166002905D0FFE7FFE7FFE7516F85
:104E9000106F704704B5002801D00020C04309F00E
:104EA00037FC002104BDC046F0B5146E556E576F37
:104EB000166FFFF7E5FF1466556657671667F0BD76
:104EC000000000D094464A4A926F9208624601D28E
:104ED00028E0C046F0B5464E346E756E776F366F7B
:104EE00000F020F89446424A1466556657671667E4
:104EF0006246F0BD94463E4A926F9208624601D2E5
:104F000054E0C046F0B53A4E346E756E776F366F2A
:104F100000F04CF89446364A146655665767166793
:104F20006246F0BD002B24DB11D000293EDA00B52B
:104F3000C943404200D1013100F038F8C943404232
:104F400000D10131DB43524200D1013300BD002AC0
:104F5000EBD1002801D1002905D00020C90FC907D5
:104F600001D1C043410800B509F0EAFB002200234B
:104F700000BD00B500290ADBDB43524200D10133FA
:104F800000F014F8C943404200D1013100BDC943CB
:104F9000404200D10131DB43524200D1013300F0E5
:104FA00005F8DB43524200D1013300BD002923D173
:104FB000002B18D1002A0CD0BC460D4F38667A66FB
:104FC00000210023FFE7FFE7FFE77A6F386F6746AE
:104FD0007047002801D00748010000B509F0B0FB78
:104FE0000022002300BD02000B00002000217047BA
:104FF000000000D0FFFFFFFF002B00D0BFE0130C2C
:1050000028D1002AE7D080B4114F39667A66FFE7CD
:10501000FFE730B4040C7B6F396F1B0423433B66FE
:105020007A66FFE7FFE7FFE7C04684B27B6F3D6F1C
:105030001B0423433B667A66FFE7FFE7C046002375
:105040002C042D0C7A6F386F00196941B0BC704781
:10505000000000D0F0B594460025140E01D11202D4
:105060000835140F01D112010435940F01D19200BB
:105070000235D40F01D152000135D40B0134254F34
:105080007C66254C3C660E0C93B2FFE7FFE7FFE71A
:105090003C6F6643360C7703BE467343DF0B5B04FD
:1050A000C01AB941130C7343DB18C91ACE08664302
:1050B000360CB64493B273431F0F1B01C01AB9419B
:1050C000130C73431F0B1B05C01AB941860D8F02C9
:1050D0003E436643360C092D24DB520A7243801A84
:1050E0007703460A6643360C16235B1BDE40DF401F
:1050F000BF1964466643821B7046043506330100BF
:10510000D940A840C01900D30131A24206D20023E1
:10511000F0BD0000000000D0FFFFFFFF121B0130B8
:10512000F3D3F1E709277F1BFE406446A2B2724326
:10513000801A00D20139220C7243130C1204821A15
:1051400099410B007046043513370100F940A8401F
:10515000801900D30131002B02D1A2420AD2F0BD46
:10516000013000D30131121BFAD2013BF8D1A24227
:1051700000D2F0BD013000D30131121BF7E7F0B5CA
:105180001C0C00D080E00CB400251C0A04D11B02CA
:10519000160E3343120208351C0B04D11B01160FE7
:1051A0003343120104359C0B04D19B00960F33430B
:1051B00092000235DC0B02D192185B4101351C00D4
:1051C000971864410134464F7C66464C3C660E0C91
:1051D000FFE7FFE7FFE7C0463C6F6643360C770307
:1051E000BE4697B27743C01B00D20139C01B00D224
:1051F00001399FB27743C91BC91B170C77437E0443
:10520000FF0B801BB941CE086643360C0C2D33DBF7
:10521000B644120B1F053A431B0B97B27743C01BD2
:1052200000D201399FB27743C91B170C77433E0464
:105230003F0C801BB941860D8F023E4366432927F0
:105240007F1BFE400C3D7746AF40BF1930BCA2B279
:10525000ABB272437343801A9941220C7243130C10
:105260001204801A994102000B000137001BA9416A
:10527000F9D2781E0021F0BD0C277F1BFE40774637
:105280007F0BAF40FF19E0E700245D1C07D0144FEF
:105290007D663966FFE7FFE7FFE7FFE73C6F95B202
:1052A0009EB265436643401BB141150C1E0C65431D
:1052B000664336042F0C3E432D04401BB1419942F6
:1052C00004D202000B0020000021F0BD01D1904269
:1052D000F7D3801A994101349942F2D3F6E70000DE
:1052E000000000D0FFFFFFFF48404140484018B495
:1052F000134B5B68019308BD18B4114B1B680193F5
:1053000008BD94460F4A926F920805D2624618B4BF
:105310000B4BDB68019308BD0A4AF0B5146E556E5D
:10532000576F166F6246FFF7F2FF064A146655661E
:1053300057671667F0BD18B4014B9B68019308BD11
:10534000201A0020000000D0FFB5504042405040DD
:1053500059404B40594000E0FFB5154F4C00640DDB
:1053600003D0BC4204D10C0314D80020090D090558
:105370005C00640D03D0BC4204D11C030AD8002297
:105380001B0D1B0501264B4009D44B4003D58B4216
:1053900000D18242FFBD9942FCD19042FFBD0B4338
:1053A000DB1803431343F5D0C9434918FFBD000080
:1053B000FF07000000B5FFF7CFFF01D0002000BDC0
:1053C000012000BD00B5FFF7C7FF804100BDC0460A
:1053D00000B5FFF7C1FF01D9002000BD012000BDCD
:1053E00000B5FFF7B1FF01D9002000BD012000BDCD
:1053F00000B5FFF7A9FF804100BD012040054A002C
:10540000121804D85A00121801D800207047012041
:10541000704700000021002805D17047C11748409F
:10542000401AFAD0C90713B5064B1B6898470CBC45
:10543000441CA2401005120B0349091B090519431E
:10544000114310BDEC4400201F04000010B54C00B7
:10545000620D8023D218DB00D21A5B057E2A10DD94
:105460009E3A13DACC170903490819435242D14036
:10547000640001341532202A05DAD0400843604325
:1054800010BD002010BD0846604310BDC80FC018F5
:10549000013810BD18B4024B5B6A019308BD0000CF
:1054A000201A002018B4024BDB6D019308BD0000E8
:1054B000201A0020C94211D300B549004908002232
:1054C00000F014F8002904D4002240428A41114619
:1054D00000BD80210906002000BD000018B4024B69
:1054E000DB6E019308BD0000201A002018B4024BA7
:1054F0009B6F019308BD0000201A002018B4024BD6
:10550000DB6F019308BD0000201A002010B5014890
:10551000FEF738F974EC0010132370B51D78012DD7
:1055200019D014DD1D48FFF703FB06001C48FFF7E8
:10553000FFFA1C4C80223100200000F0B1F8022D4F
:1055400006D01948FFF7ECFA184B186070BD154CDF
:10555000174BA364F5E7174B124C23606360A360FD
:10556000E36023616361A361E36123626362A36219
:10557000E36223636363A363E36323646364A364F9
:10558000E36423656365A365E36523666366A366D9
:10559000E36623676367A367E367D9E753440000C3
:1055A00053460000201A00204C330000EC44002039
:1055B000B95500100D55001007B5604601880A0A5C
:1055C0000230DF2AFAD1C9B2820804D302884088A7
:1055D0000004104300E00068014A5050039007BDEA
:1055E000201A002051434343C9188C46110C83B242
:1055F0004B4310B4040C614392B280B250436243F7
:105600001C041B0C001910BC59411304120CC018C7
:10561000514161447047000010B50148FEF7B2F8EF
:10562000F8EB0010132310B51C781148FFF780FA2F
:10563000012C0BD004DD010080220E4800F030F870
:105640000D48FFF76DFA0D4B186010BD094C0100B5
:105650005422200000F024F8220020000849803263
:105660000368002B00D1016004309042F8D1E7E7D5
:1056700053460000F04400204C330000EC4400206E
:105680001956001001480421014B1847A0100020B2
:10569000414B0010014B1B6818470000A010002070
:1056A000014B5B6818470000A01000209A4200D20E
:1056B000885470477047C046F8B5DE4657464E4698
:1056C0004546E0B599460D9B0700884693469B07E3
:1056D00028D00B9B002B3CD016000B9C0A9D361942
:1056E000321B013C4B464146285DB847002CF7D1A0
:1056F00035000D9B9B070ED55B46EC1A0C9BA34215
:1057000009D91E002A004B46414620200134B847E3
:105710000135B442F6D32800F0BCBB46B246A946D8
:10572000A046F8BD0B9B0C9A934214D213005D4621
:105730000C000B9A9E1A76192A004B46013521005F
:105740002020B847B542F7D10B9BA046002BC4D10F
:10575000E1E71500CDE75E46002BBED15D46DAE7F6
:10576000F0B54F46D6464646C0B584B09C460EAB13
:105770001F78129B9146BA460D9C109E119D9B0767
:105780004CD4002D41D1B44248D20123129F1F4076
:10579000B8460C9B5F1E302303E001343B55A64204
:1057A00001D9202CF9D14346002B00D187E00C9B76
:1057B0005F1E3023A54204D830E001343B55AC4293
:1057C0002CD0202CF9D1129BDB060DD5129B5B054A
:1057D00057D4A64267D0A54265D00F9B102B53D05B
:1057E000022B5BD0202C36D12023129C01930C9BE2
:1057F0004A460093039463460295FFF75DFF04B0A9
:10580000E0BCBA46B146A846F0BD0123129A134047
:105810009846012313422DD1B442BAD3129BDB0622
:105820001ED5129B5B05D8D4002CD2D10F9B102B18
:1058300060D00F9B022B71D0302301240C9A13707F
:105840005346002B11D1129B5B0740D52B260C9A97
:10585000631C1655C9E72300013430260C9AD65430
:10586000202CC1D05346002BEDD02D260C9A631C62
:105870001655BAE7002F34D0013DB44200D288E774
:1058800095E70F9B102BAFD1129B9B063CD5202C8C
:10589000AAD058230C9A13550134A3E7202CA3D087
:1058A0002300013407E0631E012CBFD00F9A102A99
:1058B00036D0022AD1D162260C9AD65492E7129B96
:1058C000DB06CDD5129B5B0500D482E785E7129AF3
:1058D0002300160700D488E720260C9A01331655BA
:1058E00083E70C2313405F1EBB41ED1AB44200D284
:1058F0004FE75CE7129B9B060ED478230C9A022498
:105900001370302353709BE7202C00D16CE7782371
:105910000C9A1355013465E75823EFE76033EDE740
:105920000C9AA61EB618129A920602D55822327008
:1059300093E77822327090E710B5002800D110BDAF
:1059400001F05EFCFBE7C04610B5002803D04A68B2
:105950000B681100984710BDF0B54E46DE4657461D
:105960004546E0B595B083468946924698461E9ACC
:105970001F9B10001900209EFFF73FFD002800D05C
:10598000D2E11E981F990122C44B5242FFF71AFD23
:10599000002800D001E11E981F990122C04B5242FD
:1059A000FFF726FD002800D0D6E01E981F990022A0
:1059B000BC4BFFF71DFD002800D0B5E01E981F99D5
:1059C0000022B94BFFF7FEFC002800D0ACE01E9887
:1059D0001F9900220023FFF7F5FC002800D0D1E03A
:1059E00000230B93229B5B0500D406260024302362
:1059F00006E006AA013417321355013E202C01D0CF
:105A0000092EF6D81E981F99FFF720FDA74BF2002C
:105A10009B180CCB050008920993FFF7FFFC0200CE
:105A20000B001E981F99FFF762FC089A099BFFF76D
:105A300082FC06900791FFF72DFD0700FFF7EAFCB7
:105A400002000B0006980799FFF751FC0022984BC3
:105A500006900791FFF7CCFC002800D1E9E0013760
:105A60003800FFF7D7FC02000B0008980999FFF7F0
:105A7000AFFC002801D000270135002E00D1B7E08F
:105A8000069513E0172306AA9B180A213800013453
:105A90001D19FFF7F1F93031297038000A21013E54
:105AA000FFF7EAF9092F00D8E1E00700202CE9D13F
:105AB000069D20240CAB0693172706ABFF180DE0BC
:105AC00028000A21FFF7B0F9013430312800395598
:105AD0000A21FFF7A9F9051E00D1B7E0202CEFD16C
